:1000000000800020BD010000F1040000A9040000F0
:10001000A9040000A9040000A9040000A90400002C
:10002000A9040000A9040000A9040000F1040000D4
:10003000F1040000A90400008515000089150000E6
:10004000F1040000F1040000F1040000F1040000DC
:10005000F1040000F1040000F1040000F1040000CC
:10006000F1040000F1040000F1040000F1040000BC
:10007000F1040000F1040000F1040000F1040000AC
:10008000F1040000F1040000F1040000F10400009C
:10009000F1040000F1040000F1040000F10400008C
:1000A000F1040000F1040000F1040000F10400007C
:1000B000F1040000F1040000F1040000F10400006C
:1000C000F1040000F1040000F1040000F10400005C
:1000D000F1040000F1040000F1040000F10400004C
:1000E000F1040000F1040000F1040000F10400003C
:1000F000F1040000F1040000F1040000F10400002C
:10010000F1040000F1040000F1040000F10400001B
:10011000F1040000F1040000F1040000F10400000B
:10012000F1040000F1040000F1040000F1040000FB
:10013000F1040000F1040000F1040000F1040000EB
:10014000F1040000F1040000F1040000F1040000DB
:10015000F1040000F1040000F1040000F1040000CB
:10016000F1040000CD080000F1040000F1040000DB
:10017000F1040000F1040000F1040000F1040000AB
:10018000F1040000F1040000F1040000F10400009B
:10019000F1040000F1040000F1040000F10400008B
:1001A000F1040000F1040000F1040000F10400007B
:1001B000F1040000F1040000F1040000564B4CF281
:1001C000205210B51A804DF628121A8000BF00BFC9
:1001D00000F092F9514B4FF010621A60504A9A6049
:1001E000504ADA60504A136813F4807304D14F49BF
:1001F0000B604FF4A85313604D4B1A78110703D5C9
:100200001A7842F008021A704A4B4B492A221A7097
:100210004A4A4B4B8B4204D252F8040F43F8040B6A
:10022000F8E7484B484900228B4202D243F8042B9E
:10023000FAE74649464A002352F8230041F82300D2
:1002400001336F2BF8D1434B434A802103F8011B44
:100250009342FBD1414B3D4A1A60414B8A221A70AE
:10026000A3F5805324225A70A0221A709A7992071B
:10027000FCD59A79D406FCD43A4A937903F00C035E
:10028000082B384BF9D105221A7143225A719A79F9
:100290009006FCD5334A9179324B4906FBD5324A58
:1002A0004FF0817111600521516020221A709A79F6
:1002B00002F00C020C2AFAD12C4B2D4A1A602D4B5D
:1002C0002D4A1A6000225A60072243F8042C2B4A58
:1002D000C3F80C2D62B600F0E3F9144B1B68DA0783
:1002E00005D5274800F06EF9264B274A1A60274BA0
:1002F0001B785B0609D5234C234B22689A4204D114
:100300001F4800F05FF90023236001F09DFA00F020
:10031000F9F801F041F9FEE70E2005403080044075
:10032000823F04000100002B10D0034014D0034092
:1003300002D0074000E00740F88BFF1F041B0000BD
:100340002087FF1FF88BFF1F488DFF1F0082FF1FB4
:100350000000000000E400E05FE400E008ED00E0E1
:1003600000500640004006404480044004800440A1
:10037000C010050014E000E03F190100000020203B
:10038000189BEE611CE00340A5C3945A00F007409F
:10039000FFFFFFFFFFFFFFFFFFFFFFFFFFFFFFFF6D
:1003A000FFFFFFFFFFFFFFFFFFFFFFFFFFFFFFFF5D
:1003B000FFFFFFFFFFFFFFFFFFFFFFFFFFFFFFFF4D
:1003C000FFFFFFFFFFFFFFFFFFFFFFFFFFFFFFFF3D
:1003D000FFFFFFFFFFFFFFFFFFFFFFFFFFFFFFFF2D
:1003E000FFFFFFFFFFFFFFFFFFFFFFFFFFFFFFFF1D
:1003F000FFFFFFFFFFFFFFFFFFFFFFFFFFFFFFFF0D
:10040000FFFFFFFFFFFFFFFFFFFFFFFFDEF9FFFF23
:1004100010B5054C237833B9044B13B10448AFF33E
:1004200000800123237010BDF88BFF1F0000000027
:10043000081B0000084B10B51BB108490848AFF372
:1004400000800848036803B910BD074B002BFBD0A0
:10045000BDE81040184700BF00000000FC8BFF1FE4
:10046000081B0000F88BFF1F00000000024B012159
:10047000187800F0BFB800BF2087FF1F10B5094CE7
:100480000121207800F0B0F84FF47A7000F0B8F84D
:100490002078002100F0A8F84FF47A70BDE81040F1
:1004A00000F0AEB82087FF1F08B5104C08E02368A5
:1004B00059050DD423681A050FD42368DB0411D421
:1004C00023685803F3D500F001FA23685905F1D5E4
:1004D00000F00EF823681A05EFD500F009F823683C
:1004E000DB04EDD500F004F8EAE700BF34800440F7
:1004F00008B5FFF7D9FF00BF014B10221A807047E3
:1005000000200540704700BF10B40F4B53F8302057
:1005100092F880422CB1012369B182F8803010BC7E
:10052000704703EBC0035B681A6841B922F002020E
:100530001A6010BC704782F8003110BC704742F05E
:1005400003021A6010BC7047841900001C4A02EBB9
:10055000C00301295B6811D004291BD052F8300078
:10056000002280F8802229B1022920D0032922D03C
:100570001A6070474FF480721A60704752F830006A
:100580004FF4A27280F880121A601A6822F02002DA
:100590001A60704752F830104FF4A272012081F8AF
:1005A00080021A601A6842F020021A60704740F216
:1005B00003121A6070474FF481721A60704700BFCF
:1005C0008419000030B4054B054D064C0022102163
:1005D0001A602A602060196030BC704714D0034054
:1005E00004D0034000D00340212801D8FFF78CBF7E
:1005F000704700BF212801D8FFF7A8BF704700BF90
:100600002DE9F843054672B6214F224B224A1B685A
:100610003C68126862B6520102D5322B88BF0134A1
:10062000A5B3C3F58C331D4EDFF86890DFF8688002
:1006300003F23F134FF47A72A6FB031302FB04F498
:1006400004EB131472B6D9F800103A68D8F800E039
:1006500062B6C1F58C3303F23F13A6FB03031EF011
:10066000806FC4EB13134FF47A7002D0322988BF25
:10067000013200FB0233B3F57A7F04D3013D05D08C
:1006800004F57A74DEE700F08FFFDBE7BDE8F8835E
:10069000148CFF1F18E000E004ED00E0398EE33811
:1006A000F8B52D4B2D49DFF8D0E0DFF8D0C02C4E47
:1006B0002C4D2D4C2D4A2E4F4FF4000018604FF05A
:1006C000807018604FF0007018604FF08060186004
:1006D0004FF00060186000200860282348F6FF7182
:1006E000CCF80010CEF80030336013602B6023602C
:1006F0003B60B3629362092245F8242CC4F8D80FFA
:1007000005F57F65C7F8D41F07F5FF2707F5FA67DA
:10071000C6F8F83F2B6006F5FF26C4F8D42F05F580
:10072000FD2504F5FF24386006F2F47611483160A7
:1007300005F5FF6504F5FD642B602360026000F0A1
:10074000A9FF1920FFF75CFF00F026FE40F213100E
:10075000BDE8F840FFF754BF08E100E00480034023
:1007600014800340248003402C8003401C800340FD
:100770003480034000800B400C800340088003401D
:1007800030B472B62B4A13781D0706D52A4B196A66
:10079000002936D0996A002941D053781C0706D524
:1007A000254B196C00293ED0996C002939D09378DB
:1007B000190705D5204B196E002936D0996E89B1DD
:1007C000D3781B0707D51C4BD3F880207AB3D3F816
:1007D000882011213AB162B6184B00221A7030BC41
:1007E00000F056BE0D21154C154D227843F83150BE
:1007F00003EBC1030830013A5860227062B630BC86
:10080000704704220D4C0F4D217843F8325003EB12
:10081000C20308304A1E5860227062B6EFE7052115
:10082000E1E70921DFE70822ECE70C22EAE71022E2
:10083000E8E700BF941A00000080FF1FED8CFF1F47
:10084000C800400088004000431E032B1DD81B4AEF
:10085000400140F0100030B4104472B6184CE25C15
:10086000032A1BD8DFE802F00212151703220D88B5
:10087000E25410F0080F14BFC823882343EA05434D
:1008800008310360416062B630BC70470830022214
:10089000EDE70522EBE708300422E8E7094A52F8C1
:1008A000230038B1084A52F82300416042F823106F
:1008B00062B6E9E742F82310034AF7E70080FF1F1A
:1008C000FC8CFF1FC48CFF1FD48CFF1F2DE9F04F41
:1008D000DFF818B3DFF818A387B044E0AE4F4FEA53
:1008E000930807EBC809013ED9F8042003F0080378
:1008F000F6B2A2F1080003F0FF04002B40F00481DF
:1009000057F838301B0C99B222F8081C002B00F065
:10091000F280A24B22F8064C42F8044C53F82620F1
:10092000002A00F06E819E4D55F8263058609D4C8F
:1009300045F8260034F81630194424F8161000F053
:1009400087FD002800F05681974A984B19F0080F50
:1009500000F1080018BF1346C9F8040047F8383002
:1009600008238BF800309BF80040E4B261071BD5E8
:100970008F4B1B78ABB18F490A7802F0FF032AB185
:10098000013BDBB20B70002B00F0EF848A490A7840
:1009900002F0FF032AB1013BDBB20B70002B00F029
:1009A000F78004238BF8003004F0080303F0FF0203
:1009B000002B00F0D6809AF80030DBB21E098DD1F2
:1009C0009C08DFF8D49159F8342009EBC401C2F334
:1009D0008302013A49680C2A7ED8DFE802F081815F
:1009E0007D7D7D7D7D7D477D7D7D07000868734D24
:1009F0004A68734F734E286081B240F281606A4B3F
:100A00006A604FF0010E0022814249F834303A60AA
:100A1000C9F81020C9F8182086F800E05E4C00F2F2
:100A2000F480B1F5D06F80F07883B1F5817F00F06C
:100A3000628300F28782802900F0EC82822940F0F4
:100A40001E83A98801F07F01042900F218835E4803
:100A50005E4C89000844227062700278930740F16E
:100A6000798384F800E04FF0020ED8E2544F3A68E0
:100A700042B3574B534E5749188834780D78402865
:100A8000864645F0020828BF4FF0400E002C84F047
:100A900001043470CEEB00000CBF8824C82409EB9D
:100AA000C80680B285F0010544EA0E4472601880E1
:100AB00049F8384072440D7018B9BEF1400F18BFA4
:100AC00000223A603D4B1A88B2F5A06F04D1002194
:100AD0009A785970404B1A70404A012313703FE7CF
:100AE000364A158842F22100854200F0FF812E4AE5
:100AF00049F83420F0E72C4A2C4B19F0080F18BFA6
:100B0000134647F838302BE700F0C2FC344A354929
:100B100052F82630002B00F0B68158688C5D42F800
:100B2000260003F10802C9F80420032C05D8DFE8E9
:100B300004F0120F150204228A551A8819F0080FC2
:100B40000CBF8823C82343EA024347F8383007E73D
:100B500002228A55F1E703228A55EEE705228A55DB
:100B6000EBE7E00700F11A82210600F14982A207B3
:100B700006D51D4A1D4913780220DBB21370087098
:100B8000E30602D5194B10221A7007B0BDE8F08FAA
:100B900000F0B2FC05E700BF0080FF1F708CFF1F54
:100BA0001C8CFF1F348DFF1FC800400088004000D0
:100BB000F88CFF1F818CFF1F008DFF1FE48CFF1F2F
:100BC000188CFF1F808CFF1FC0200740F08CFF1F78
:100BD0002C8CFF1FEC8CFF1F9820074094200740AF
:100BE000C48CFF1FFC8CFF1F88200740802007401B
:100BF00090200740AB4A47F8380013780133137050
:100C0000AEE643F82600A84D91E642F2210081426B
:100C100000F0358100F2AF81B1F5086F00F01B8262
:100C2000B1F5106F40F02B82226AA049A8780870B5
:100C3000120600F14583D9F828209D49130600F1DA
:100C40003A83D9F830209A49150600F12F83D9F854
:100C500038209749140600F12483D9F8402094499C
:100C6000100600F11983D9F848209149120600F1C5
:100C70000E83D9F850208E49130600F10383D9F86A
:100C800058208B49150600F1F882D9F86020884970
:100C9000140600F12983D9F868208549100600F16F
:100CA0001E83D9F870208249120600F11383D9F807
:100CB00078207F49130600F10883D9F880207C4909
:100CC000150600F11C83D9F888207949140600F133
:100CD0001083D9F890207649100600F1C882D9F81F
:100CE00098207349120600F1BC827248724A734917
:100CF000019073486C4D734C049700230596029540
:100D0000804617460E461D460394386828B144684D
:100D100000F0BEFB2046002CF9D100233B60029B73
:100D200030681A46002342F8253028B1446800F0A4
:100D3000AFFB2046002CF9D100223260019A98F8CE
:100D400000301146002241F8042B039A0191023B26
:100D50004FF0000122F81510032B09D8DFE813F03B
:100D60004B0104004B0104004FF0010388F80030F0
:100D70000135042D07F1040706F1040608F1010806
:100D8000C3D1514C514B2278464D049F059E002102
:100D900029701A70130700F14F8262784C49DFF80E
:100DA00010810A7010074FF00001C9F83010C9F81F
:100DB000381000F12B824749A2780A700021C9F847
:100DC0005010C9F858101107DFF8E48000F1DC81F9
:100DD000E2784149364C0A7000211207C9F87010B8
:100DE000C9F8781000F1B98133780193002183F0BC
:100DF0000102C9F89010C9F89810002002908046AE
:100E00008446044635490D7845F0020E09EBCE03C1
:100E10000393019B002B039B5C600CBF8824C824B8
:100E200044EA080385F0010449F83E3032700C7042
:100E3000DFF87CE02A4BDFF8A480002840F0268110
:100E4000BCF1400F1BD144F0020C09EBCC03029C17
:100E5000DFF85CE05C60002A40F02E81020442F082
:100E600088029DF804304EF83C20044433700D7025
:100E70002346402803D100201A4A3B6010801A4ABA
:100E80000123137028E68B5D032B00F22D8101A254
:100E900052F823F06109000061090000EB0F000027
:100EA000F10F0000ED8CFF1F1C8CFF1FF88CFF1F43
:100EB0000080FF1FD48CFF1F708CFF1FC48CFF1F8E
:100EC000FC8CFF1F348DFF1F941A0000C4200740C4
:100ED000C8200740CC200740D0200740EC8CFF1FE3
:100EE000808CFF1F2C8CFF1F94200740928892B9A2
:100EF000B14A0D784878157050708D78C878957023
:100F0000D07010680D79157186284D7989795571E1
:100F1000917100F0A580A949A94E0A78307882F035
:100F20000105002842F002020D700CBF8821C82183
:100F300049F8321009EBC20280F001000021307044
:100F40005160D4E540F20232914240F08D80A98890
:100F500001F07F01042900F292806A88002A40F0A3
:100F60008E809848CDF804E089000844017841F06B
:100F70000201017041E742F2212081427BD1A98820
:100F8000002940F0E480904B904A9148AC781D686D
:100F90001560CDF804E00A4604702EE78D4B8E48AC
:100FA00086491A614FF0020E80F800E0854F0A7002
:100FB0008A49196099608A4E8A4D8B4C9A610D213D
:100FC0003970FF213170DFF840E229702270874DBF
:100FD000874A8EF800109F27012406F8047C5D6084
:100FE0000470DA6007B0BDE8F08F00238B55B7E4DA
:100FF00001238B55B4E44FF0000388F80030B7E6C6
:101000007049784B80220D2008701A70A2077FF576
:10101000B7ADAEE5774C4FF0020E22706270EA88F1
:10102000724580F0A38165490D78402A944645F0C9
:10103000020E28BF4FF0400C04EB0C0309EBCE006E
:101040000293012344604FEA0C48CCEB0200019369
:101050000022C824E4E6684A664C12782270DEE773
:10106000664A0F21117056E7B1F5A06F07D1012331
:1010700000220193C1E642F221329142F7D0514A57
:101080000F231370544A0123137025E540287FF67F
:10109000DAAE44F002040EEBC401029E4E60BAB117
:1010A0009DF80410564A19703346403888F80050AD
:1010B00040334EF83420DFE69DF8043033700204EC
:1010C000029B0D7042F0C80203444EF83C20D0E66B
:1010D0009DF804101970029B404A88F8005040386F
:1010E00040334EF83420C7E619F0080F0CBF022336
:1010F00003238B5534E4A98801F07F010429BED86D
:101100006A88002ABBD12F48CDF804E08900084442
:10111000017821F0020101706FE63A4A5468002C10
:10112000ADD06888B5F804E003E00C325468002CB8
:10113000A5D013888342F8D153887345F5D1000AAE
:1011400003280CBF94F800E0B2F808E067E7CDF898
:1011500004E052E64FF0020E61E700F079F9002852
:1011600000F0F18008301D4AC4F88400C4F88020E3
:1011700000F06EF9002800F0E0800830204AC9F83D
:101180008C00C9F888202FE600F062F9002800F0F2
:10119000E6800830114AC8F86400C8F8602000F002
:1011A00057F9002800F0D5800830154AC9F86C00BE
:1011B000C9F868200CE600BF3C8DFF1FEC8CFF1FB8
:1011C000808CFF1FC0200740148CFF1F448DFF1F21
:1011D0000C8DFF1F0080FF1F9420074088004000F7
:1011E000882007408020074098200740308CFF1F50
:1011F000848CFF1FF08CFF1FF88CFF1F818CFF1F5A
:10120000C8004000981A00008C20074000F020F928
:10121000002800F08C8008305D4AC8F84400C8F807
:10122000402000F015F900287BD00830594AC9F851
:101230004C00C9F84820BEE500F00AF900286AD041
:101240000830534AC9F82400C9F8202000F000F9FA
:1012500000285AD008304F4AC9F82C00C9F8282075
:101260009BE5D1F89C00083800F012F93DE5D1F873
:101270009400083800F00CF931E5C86D083800F02A
:1012800007F902E5486D083800F002F9F7E4C86C88
:10129000083800F0FDF8ECE4486C083800F0F8F885
:1012A000E1E4C86B083800F0F3F8D6E4486B08387E
:1012B00000F0EEF8CBE4C86A083800F0E9F8C0E4C2
:1012C000606A083800F0E4F8B5E4C86F083800F048
:1012D000DFF8F2E4486F083800F0DAF8E7E4C86EA7
:1012E000083800F0D5F8DCE4486E083800F0D0F893
:1012F000D1E4D1F88C00083800F0CAF8E9E4D1F85C
:101300008400083800F0C4F8DDE42A78C9F8280021
:1013100001322A7041E52A78C9F8200001322A708A
:1013200094E72A78C9F8480001322A7043E52A7800
:10133000C8F8400001322A7073E72A78C9F888009B
:1013400001322A7050E52A78C4F8800001322A70F0
:101350000EE72A78C9F8680001322A7038E52A7841
:10136000C8F8600001322A7019E700BEBEF1400FD4
:10137000F44628BF4FF0400C04EB0C03029301230A
:10138000CCEB0E004FEA0C48002201933AE500BF77
:1013900088004000C80040002DE9F843204C00F0D0
:1013A000E9F9002204F1A00023461A605A600833CC
:1013B00083424FF00001F8D11A4A1B4F13681B4DAE
:1013C0001B481C4EDFF87880DFF878C0DFF8789093
:1013D000DFF878E043F480231360C4F307233B7005
:1013E000C4F307432B70240EFF2302F52832047048
:1013F000114D88F8003011488CF80030D432337029
:10140000012389F8003070268EF800104FF4007424
:10141000102107F8183C2E7004601170BDE8F883A5
:101420000080FF1F348004409C200740B02007400C
:10143000B42007401020074049E400E008E100E044
:101440008020074088200740942007400021074063
:1014500072B60D480268B2FA82F30B2B10DC4FF023
:101460000041D94022EA0102026062B6074803EB5C
:10147000C303DB00C2180021C15010465160704701
:1014800062B60020704700BF2487FF1FBC83FF1F88
:101490000D4B0E4AC31AA2FB03231B090B2B0CD8BE
:1014A0000B4A127852B972B60A484FF000410268EE
:1014B00021FA03F31A43026062B67047064A1278B3
:1014C000002AF0D0FFF75CB9BC83FF1F398EE338E8
:1014D000ED8CFF1F2487FF1FF88CFF1F044B054A6C
:1014E0001B6890881BB11A885B88D31A1844704710
:1014F000088DFF1F348DFF1F38B50E4B1B7873B955
:101500000D4C216861B103F0FF054B880B8004206E
:10151000FFF79AF9256038BD084B01221A7038BDD3
:10152000FFF796FF0028F7D00146BDE838400420B9
:10153000FFF78AB9018DFF1F048DFF1F008DFF1F6C
:1015400070B5EFF3108272B60C4C206880B10C4E6F
:1015500000254369236073B19D6102B962B6457786
:1015600083689847EFF3108272B620680028F0D1A4
:1015700002B962B670BD3360EFE700BF108DFF1F88
:10158000148DFF1FFFF7DCBF024A1368013313609D
:10159000704700BF148CFF1F08B5FEF767FFFEF70A
:1015A0006DFF00F001F8FAE72DE9F843314E33788A
:1015B00093B1314F3A787AB90122D9073A7036D4CB
:1015C0009A0719D400225B073A7005D52B4B1A688D
:1015D00012B1EFF305820AB1BDE8F883EFF3108191
:1015E00072B6186818B1264C2278002A2ED000292D
:1015F000F2D162B6BDE8F883DFF8908098F8002059
:10160000002ADFD0DFF88890002405E0013498F844
:101610000030E4B2A34212D959F824502B6828466E
:101620001B6998470028F1D02B699847EEE7FFF730
:1016300055FFC8B9134B1B781BB93378C0E7337813
:10164000C0E7337803F0FE033370B9E745691D60E6
:10165000012323705DB1AA6101B962B60025457707
:10166000836898472570B7E700F0C6F8E2E7064BB5
:101670001D60F1E72887FF1F218DFF1F1C8DFF1FB5
:10168000208DFF1FCE87FF1F188DFF1F308DFF1F7E
:10169000248DFF1F30B42948294A2A4B2A4D602443
:1016A000E121047011701B78284C082B30D00A2BD4
:1016B0002748284937D00C2B0CBF15223D22122376
:1016C0002A60236002600B60234B24491B78244A64
:1016D000BBB101230B601360224B23491B78234AC3
:1016E000012B26D9042B0FD9082B1ED9102B94BF00
:1016F000862387230B6013601D4B01221A7030BCB8
:1017000070470B601360E7E784230B601360F3E717
:1017100000F58E200F490830012213232A60236030
:1017200002600B60D0E71922F7E785230B60136096
:10173000E2E780230B601360DEE700BF0040074054
:10174000014007402987FF1F08B003400CB0034049
:1017500008B00B400CB00B40238DFF1F20B003409E
:1017600020B00B402A87FF1F24B0034024B00B4059
:10177000228DFF1F70B584B072B6194B194D1A48EF
:10178000702241260F2480211A702E701A46047090
:10179000197013781B06FCD5144B186862B6144BED
:1017A000144C984298BF00EB800001A998BF4000FC
:1017B0000A2200F023F801A92046002311F8012B8A
:1017C00001333AB10A2B20F8022FF7D116232370E8
:1017D00004B070BD5B00DBB2237004B070BD00BF0D
:1017E00000000240070002400600024008000240DC
:1017F0007F969800B887FF1F704700BFF0B44D1E5A
:101800002E46002400E00134B0FBF2F302FB13008B
:10181000092800F130078ABF3730F8B2C0B206F8A5
:10182000010F1846002BEED10A1953704CB11078F5
:1018300015F8016F28700133E01A834202F801693C
:10184000F5DB0846F0BC704770B50F4E0F4D761BA8
:10185000B61018BF002405D0013455F8043B984752
:10186000A642F9D10A4E0B4D761B00F041F9B61095
:1018700018BF002406D0013455F8043B9847A6420F
:10188000F9D170BD70BD00BFFC1A0000FC1A000049
:10189000041B0000FC1A0000024B13B1024800F0C8
:1018A00005B8704700000000B91800000023014689
:1018B0001A46184600F014B838B5074D074C2C1BD3
:1018C000A41005D0013C55F8043D9847002CF9D1EF
:1018D000BDE8384000F016B900000000000000002C
:1018E0002DE9F047254C2568D5F84841064688463D
:1018F00092469946C4B360681F2817DC431C76B132
:1019000004EB80050122C5F888A0D4F88811824034
:101910001143022EC4F88811C5F808911ED0023078
:10192000636044F820800020BDE8F087144B03B3C7
:101930004FF4C870AFF300800446D0B1D5F84831F9
:10194000002780E88800C5F8484138460123C4F8DC
:101950008871C4F88C71002EE1D0D1E7D4F88C11D5
:101960000A43C4F88C21DAE705F5A674C5F84841A6
:10197000C1E74FF0FF30BDE8F08700BFEC1A000070
:10198000000000004008FE4340A004404408FE431D
:1019900044A004400018FE4300C004403000FE4351
:1019A000309004403400FE43349004401C18FE4341
:1019B0001CC004401018FE4310C004400818FE4329
:1019C00008C004400C18FE430CC004400C10FE4339
:1019D0000CB004401010FE4310B004401810FE4339
:1019E00018B004401C10FE431CB004401410FE4309
:1019F00014B004400418FE4304C004400010FE4329
:101A000000B004400008FE4300A004400408FE4368
:101A100004A004400C08FE430CA004400808FE4348
:101A200008A004401418FE4314C004401818FE43D4
:101A300018C004400410FE4304B004400810FE43E4
:101A400008B004401400FE43149004404C08FE43C8
:101A50004CA004400420FE4304D004402410FE4364
:101A600024B004402010FE4320B004402810FE4360
:101A700028B004402C10FE432CB004400020FE434C
:101A800000D004404808FE4348A004401000FE4334
:101A90001090044000151915000100002C87FF1F4D
:101AA00012000000000200005887FF1F43000000E2
:101AB00000030000B487FF1F0000000001030904B9
:101AC0004087FF1F00000000020309049C87FF1FDE
:101AD0000000000003030904B887FF1F0000000096
:101AE000000000000000000000000000D087FF1F81
:101AF000F8B500BFF8BC08BC9E46704799180000B6
:041B000035040000A8
:041B0400F8B500BF71
:101B08000D000000FFFFFFFF010A04001201100191
:101B180002000040C01683047502010203010000A0
:101B280018035400650065006E00730079006400B6
:101B3800750069006E006F0009024300020100C0D1
:101B48003209040000010202010005240010010509
:101B58002401010104240206052406000107058268
:101B68000310004009040100020A000000070503F1
:101B780002400000070584024000000016035500DB
:101B880053004200200053006500720069006100A4
:101B98006C000000040309040C03000000000000AE
:101BA800000000000000000000000000000001002C
:101BB80000000000BC8AFF1F248BFF1F8C8BFF1FB7
:101BC800000000000000000000000000000000000D
:101BD80000000000000000000000000000000000FD
:101BE80000000000000000000000000000000000ED
:101BF80000000000000000000000000000000000DD
:101C080000000000000000000000000000000000CC
:101C180000000000000000000000000000000000BC
:101C280000000000000000000000000000000000AC
:101C3800000000000000000000000000000000009C
:101C4800000000000000000000000000000000008C
:101C5800000000000000000001000000000000007B
:101C68000E33CDAB34126DE6ECDE05000B00000040
:101C7800000000000000000000000000000000005C
:101C8800000000000000000000000000000000004C
:101C9800000000000000000000000000000000003C
:101CA800000000000000000000000000000000002C
:00000001FF
